:020000040800F2
:1000000000280020851300084D1000085310000838
:10001000591000085F10000865100008000000007B
:100020000000000000000000000000006B1000084D
:100030007710000800000000831000088F100008EF
:10004000CD130008CD130008CD130008CD13000810
:10005000CD130008CD130008CD130008CD13000800
:10006000CD130008CD130008CD130008CD130008F0
:10007000CD130008CD130008CD130008CD130008E0
:10008000CD130008CD130008CD130008CD130008D0
:10009000CD130008CD130008CD130008CD130008C0
:1000A000CD130008CD130008CD130008CD130008B0
:1000B0009D100008CD13000800000000CD130008BB
:1000C000CD1300080000000000000000CD13000860
:1000D00000000000CD130008CD1300080000000050
:1000E000CD130008CD130008CD1300080000000058
:1000F0000000000000000000000000000000000000
:0C01000000000000000000005FF808F1A3
:10010C0010B5054C237833B9044B13B10448AFF345
:10011C0000800123237010BD5C0000200000000053
:10012C001C43000808B5034B1BB103490348AFF34C
:10013C00008008BD00000000600000201C43000887
:10014C0080B500AF0F4B1B68062B03D00E4B1B6802
:10015C00062B07D10021C02000F0F8FF0B4801F05E
:10016C0075F806E00021C02000F0F0FF084801F00F
:10017C006DF80021942000F0E9FF064801F066F8C4
:10018C0000BF80BD780000207C00002034430008B4
:10019C00444300085443000880B500AF00F070FDE4
:1001AC0003461A46054B1A70044B1B78184600F090
:1001BC002DFEC82001F068F900BF80BDAC01002005
:1001CC0080B584B002AF3B1D00210A461A800A4656
:1001DC009A703B1D00221946264802F0E3FA0023D0
:1001EC003B603B4600221946224802F069FC224B38
:1001FC001B68012B25D13B791A467B791946BB79B3
:10020C0000930B461D491E4803F0D0FB0021C02073
:10021C0000F09CFF1A4801F019F8BB781A467B785D
:10022C001946FB7803F5FA6300930B4615491648FB
:10023C0003F0BCFB0021802000F088FF124801F085
:10024C0005F80D4B1B68002B0FD13B79152B02D8F1
:10025C003B79042B09D80D4B06221A600C4B062255
:10026C001A600C4B4FF0FF321A6000BF0837BD46C6
:10027C0080BD00BF8800002084000020644300087B
:10028C009C0000207C430008000100207800002026
:10029C007C0000208000002080B584B002AF0023D9
:1002AC007B603B1D002219460D4802F009FCBB790E
:1002BC001A467B791946FB7903F5FA6300930B46D2
:1002CC000849094803F072FB0021802000F03EFF32
:1002DC00054800F0BBFF00BF0837BD4680BD00BF1E
:1002EC00880000207C4300080001002080B500AF8E
:1002FC00864B1B68012B5DD14FF48051844801F073
:10030C0071FB03461A46834B1A60824B1B68012B08
:10031C0010D1814B1B68002B0CD1804B1B68002B20
:10032C0008D17F4B04221A607E4B05221A607E4B4B
:10033C0001221A604FF40051754801F053FB03463B
:10034C001A46744B1A60734B1B68012B10D1724BFD
:10035C001B68002B0CD1714B1B68002B08D1704B08
:10036C0000221A606F4B00221A606F4B01221A6038
:10037C004FF480416D4801F035FB03461A46654B3E
:10038C001A60644B1B68012B10D1634B1B68002B4C
:10039C000CD1624B1B68002B08D1614B00221A60F8
:1003AC00604B00221A60604B01221A60594B1B688B
:1003BC00594A13605A4B1B68062B00F29E8001A20F
:1003CC0052F823F0ED030008FD030008390400087F
:1003DC0073040008AF040008D5040008FB040008EF
:1003EC004F4B01221A604FF4FA7000F047FF8BE07C
:1003FC0001224FF400514D4801F00BFB00224FF449
:10040C0080414B4801F005FB00224FF40041484865
:10041C0001F0FFFA474B1B68012B70D1404B0222B5
:10042C001A604FF4967000F029FF68E000224FF438
:10043C0000513E4801F0EDFA00224FF480413C4857
:10044C0001F0E7FA01224FF40041394801F0E1FADA
:10045C00384B1B68012B54D1314B03221A60C82036
:10046C0000F00CFF4DE000224FF400512F4801F03A
:10047C00D0FA01224FF480412D4801F0CAFA002233
:10048C004FF400412A4801F0C4FA2A4B1B68012B97
:10049C0039D1234B01221A604FF4FA7000F0EEFEB2
:1004AC0031E001224FF40051204801F0B2FA002251
:1004BC004FF480411E4801F0ACFA00224FF4004189
:1004CC001B4801F0A6FA1FE000224FF40051174818
:1004DC0001F09FFA00224FF48041154801F099FA7F
:1004EC0001224FF40041124801F093FA0CE04FF452
:1004FC0080410F4801F0A5FA06E000BF04E000BF00
:10050C0002E000BF00E000BF00BF80BD84000020FF
:10051C00000C0140B4010020B8010020B001002003
:10052C00780000207C0000208000002000080140A2
:10053C0000100140D001002080B500AF764B1B6845
:10054C00012B3CD14FF48041744801F04BFA034627
:10055C001A46734B1A60724B1B68012B10D1714BEE
:10056C001B68002B0CD1704B1B68002B08D16F4BF8
:10057C0005221A606E4B04221A606E4B00221A6020
:10058C004FF40041654801F02DFA03461A46644BBE
:10059C001A60634B1B68012B0DD1624B1B68002B3F
:1005AC0009D1614B1B68002B05D1614B00221A60ED
:1005BC005E4B00221A605A4B1B685A4A13605C4B04
:1005CC001B68062B00F29F8001A252F823F000BF9B
:1005DC00F905000809060008450600087F06000812
:1005EC00BB060008E106000807070008504B022272
:1005FC001A604FF4967000F055FE8BE001224FF418
:10060C000071464801F005FA00224FF4806143481E
:10061C0001F0FFF900224FF40061404801F0F9F9B4
:10062C00454B1B68012B70D1414B02221A604FF4D1
:10063C00967000F037FE68E000224FF400713748E6
:10064C0001F0E7F900224FF48061344801F0E1F940
:10065C0001224FF40061314801F0DBF9364B1B6885
:10066C00012B54D1324B03221A60C82000F01AFE21
:10067C004DE000224FF40071284801F0CAF9012224
:10068C004FF48061254801F0C4F900224FF4006159
:10069C00224801F0BEF9284B1B68012B39D1244BA1
:1006AC0001221A604FF4FA7000F0FCFD31E00122D7
:1006BC004FF40071194801F0ACF900224FF480613D
:1006CC00164801F0A6F900224FF40061134801F01E
:1006DC00A0F91FE000224FF40071104801F099F9C5
:1006EC0000224FF480610D4801F093F901224FF480
:1006FC0000610A4801F08DF90CE04FF48061074865
:10070C0001F09FF906E000BF04E000BF02E000BF6B
:10071C0000E000BF00BF80BD84000020000C014041
:10072C00B4010020B8010020B001002078000020A6
:10073C007C00002080000020D801002080B500AF94
:10074C000D4B1B68012B0ED10C4B1B6801330B4A54
:10075C001360642000F0BAFD084B1B68052B02DD0A
:10076C00064B01221A60054B1B680121184600F04C
:10077C0033FA00BF80BD00BFE001002080000020E4
:10078C0080B500AF1C4B00221A6000F01BFE00F07D
:10079C0039F800F03BF901221B21184801F039F916
:1007AC0000224FF4F071154801F033F900F0E2F833
:1007BC00134802F063FD00F079F800F0AFFCFFF78E
:1007CC006BFDFFF7BDFC032000F058FD022000F08C
:1007DC0069FD012000F07AFD0121002000F0FCF9F8
:1007EC00FFF7ACFFFFF782FDFFF7A6FEFFF7D4FC87
:1007FC00FFF7E6FCF4E700BF84000020000C01408A
:10080C006401002080B594B000AF07F128032822C2
:10081C000021184603F0EAF807F1140300221A60CD
:10082C005A609A60DA601A613B1D00221A605A60A5
:10083C009A60DA600A23BB620123BB631023FB635B
:10084C0001233B6400237B6407F12803184601F065
:10085C001DF90346002B01D000F072FB0F237B61C6
:10086C000023BB610023FB6100233B6200237B62FE
:10087C0007F114030021184601F08AFB0346002BF4
:10088C0001D000F05DFB01237B604FF40073BB6073
:10089C003B1D184601F0F6FC0346002B01D000F07E
:1008AC004FFB00BF5037BD4680BD000080B584B003
:1008BC0000AF07F10C0300210A461A800A469A7011
:1008CC000023BB603B4600221A605A60274B284A23
:1008DC001A60264B4FF0FF325A60244B4FF4807253
:1008EC009A60224801F03AFE0346002B01D000F03A
:1008FC0027FB12233B7300237B730023BB7307F18D
:10090C000C0301221946194801F0B4FE0346002BD2
:10091C0001D000F015FB05233B7210237B722923B9
:10092C00BB722323FB7207F10803012219460F48FF
:10093C0002F010F80346002B01D000F001FB152348
:10094C003B7023237B700123BB7000237B603B46F1
:10095C0001221946054802F007F90346002B01D085
:10096C0000F0EEFA00BF1037BD4680BD88000020B5
:10097C000028004080B586B000AF07F108030022C4
:10098C001A605A609A60DA603B4600221A605A601C
:10099C001D4B4FF080421A601B4B41F63F725A6060
:1009AC00194B00229A60184B0922DA60164B002270
:1009BC001A61154B00229A61134802F00FFC034692
:1009CC00002B01D000F0BCFA4FF48053BB6007F150
:1009DC00080319460C4802F0A5FD0346002B01D074
:1009EC0000F0AEFA00233B6000237B603B461946C7
:1009FC00054802F071FF0346002B01D000F0A0FA6D
:100A0C0000BF1837BD4680BD6401002080B588B09A
:100A1C0000AF07F1100300221A605A609A60DA6086
:100A2C00464B9B69454A43F010039361434B9B69CA
:100A3C0003F01003FB60FB68404B9B693F4A43F09B
:100A4C00200393613D4B9B6903F02003BB60BB68A3
:100A5C003A4B9B69394A43F004039361374B9B69CA
:100A6C0003F004037B607B68344B9B69334A43F08F
:100A7C0008039361314B9B6903F008033B603B68AF
:100A8C0000224FF440412E4800F0C3FF002249F6EB
:100A9C00FF712C4800F0BDFF002240F6FB712A4884
:100AAC0000F0B7FF4FF440433B6101237B6100230F
:100ABC00BB610223FB6107F110031946204800F0CB
:100ACC0015FE4BF6FF733B6101237B610023BB6179
:100ADC000223FB6107F1100319461A4800F006FEC9
:100AEC0040F6FB733B6101237B610023BB61022356
:100AFC00FB6107F110031946134800F0F7FD4FF4A2
:100B0C0070433B6100237B610023BB6107F1100341
:100B1C0019460D4800F0EAFD4FF480433B61002379
:100B2C007B610023BB6107F110031946054800F0F7
:100B3C00DDFD00BF2037BD4680BD00BF0010024068
:100B4C000010014000080140000C014080B582B04B
:100B5C0000AF786000F0CEFB00BF0837BD4680BD0B
:100B6C0080B584B000AF0346FB71C7F800C0072303
:100B7C00FB6026E0FA79FB6842FA03F3DBB203F080
:100B8C000103DBB21A464FF48051124800F041FFCA
:100B9C0000BF00224FF400610E4800F03AFF00BF86
:100BAC0001224FF400610B4800F033FF00BF00221C
:100BBC004FF40061074800F02CFF00BFFB68013BBD
:100BCC00FB60FB68002BD5DA00BF00BF1037BD46B9
:100BDC0080BD00BF0008014080B588B000AF7860D0
:100BEC000B46FB7007F12803FB60224A07F1100348
:100BFC0007CA03C31A8000BF0023FB611DE079689C
:100C0C001D4BA3FB0123DA0813469B0013445B0026
:100C1C00CA1A02F120033B4413F8103C07F10C02F2
:100C2C0094461846FFF79CFF7B68134AA2FB0323EC
:100C3C00DB087B60FB690133FB61FB78FA699A4244
:100C4C00DDDB00224FF400410C4800F0E2FE00BF57
:100C5C0001224FF40041094800F0DBFE00BF0022E6
:100C6C004FF40041054800F0D4FE00BF00BF203710
:100C7C00BD4680BD94430008CDCCCCCC00080140CF
:100C8C0090B587B000AF2B4B3C1D0FCB84E80F0009
:100C9C000121294800F0A6FE0346002B0BD10120B0
:100CAC0000F04CF80346FB75FB7D013B18333B44CD
:100CBC0013F8143C39E002211F4800F093FE034660
:100CCC00002B0BD1022000F039F80346FB75FB7D9D
:100CDC00033318333B4413F8143C26E00821164820
:100CEC0000F080FE0346002B0BD1082000F026F804
:100CFC000346FB75FB7D073318333B4413F8143C58
:100D0C0013E010210C4800F06DFE0346002B0BD1B4
:100D1C00102000F013F80346FB75FB7D0B331833E2
:100D2C003B4413F8143C00E0102318461C37BD4616
:100D3C0090BD00BFA0430008000C014080B584B0FA
:100D4C0000AF0346FB7101224FF4F0712E4800F006
:100D5C0060FE002220212C4800F05BFEFB799BB248
:100D6C001946294800F03EFE0346002B01D1012311
:100D7C00FB7301222021244800F04BFE002240216D
:100D8C00214800F046FEFB799BB219461E4800F044
:100D9C0029FE0346002B01D10223FB7301224021C3
:100DAC00194800F036FE00228021174800F031FE71
:100DBC00FB799BB21946144800F014FE0346002B35
:100DCC0001D10323FB73012280210F4800F021FE87
:100DDC0000224FF480710C4800F01BFEFB799BB293
:100DEC001946094800F0FEFD0346002B01D10423EF
:100DFC00FB7300224FF4F071034800F00AFEFB7BFA
:100E0C0018461037BD4680BD000C014080B584B03B
:100E1C0000AF0346FB71414A07F1080392E8030057
:100E2C00186004331970FB79102B72D03C4B1B7873
:100E3C001A46FB793033D9B23A4B9954FB7930339B
:100E4C00DBB20121184600F081F9354B1B780133D8
:100E5C00DAB2334B1A70324B1B78052B59D1002167
:100E6C00D42000F073F90023FB731BE0FB7B2D4AAD
:100E7C00D25CFB7B10333B4413F8083C9A420ED0F7
:100E8C000021012000F062F90021852000F05EF9BC
:100E9C00254800F0DBF9224B00221A7005E0FB7BA1
:100EAC000133FB73FB7B042BE0D9FB7B052B13D1AC
:100EBC000021012000F04AF90021852000F046F9BC
:100ECC001A4800F0C3F901224FF48061184800F071
:100EDC00A0FD184B01221A604FF4FA7000F0D4FAFE
:100EEC000F4B00221A700021012000F02FF9FFF7A0
:100EFC0067F9FFF7D1F90021942000F027F90E488B
:100F0C0000F0A4F90021D42000F020F90B4800F0E7
:100F1C009DF900BF1037BD4680BD00BFD843000807
:100F2C00BC010020C0010020B0430008BC430008F5
:100F3C000008014084000020C84300085443000806
:100F4C0080B400AF72B600BFFEE7000080B485B07D
:100F5C0000AF154B9B69144A43F001039361124B8C
:100F6C009B6903F00103BB60BB680F4BDB690E4A46
:100F7C0043F08053D3610C4BDB6903F080537B60EF
:100F8C007B680A4B5B68FB60FB6823F0E063FB60EB
:100F9C00FB6843F00073FB60044AFB68536000BFBE
:100FAC001437BD4680BC7047001002400000014061
:100FBC0080B584B000AF78607B681B680B4A9342A5
:100FCC0010D100F057FD0A4BDB69094A43F000636E
:100FDC00D361074BDB6903F00063FB60FB68054BD7
:100FEC0001221A6000BF1037BD4680BD00280040AA
:100FFC00001002403C04424280B584B000AF7860DF
:10100C007B681B68B3F1804F13D10C4BDB690B4A27
:10101C0043F00103D361094BDB6903F00103FB606F
:10102C00FB68002200211C2000F029FB1C2000F092
:10103C0042FB00BF1037BD4680BD00BF0010024010
:10104C0080B400AFFEE780B400AFFEE780B400AF21
:10105C00FEE780B400AFFEE780B400AFFEE780B4DB
:10106C0000AF00BFBD4680BC704780B400AF00BF6E
:10107C00BD4680BC704780B400AF00BFBD4680BC8D
:10108C00704780B500AF00F0E3F900BF80BD0000F1
:10109C0080B500AF024802F03DF900BF80BD00BF33
:1010AC006401002080B586B000AF7860144A154BFF
:1010BC00D31A7B617B693B61134B1B68002B02D1FC
:1010CC00114B124A1A60104B1A687B6813443A6928
:1010DC009A4207D202F092FC03460C221A604FF09F
:1010EC00FF3309E0084B1B68FB60074B1A687B68F1
:1010FC001344054A1360FB6818461837BD4680BD7B
:10110C000028002000040000C8010020300300204B
:10111C0080B400AF00BFBD4680BC704780B500AF47
:10112C000021382000F012F800210C2000F00EF8FD
:10113C000021062000F00AF80021012000F006F83A
:10114C000021802000F002F800BF80BD80B584B083
:10115C0000AF03460A46FB711346BB71BB791A46B6
:10116C004FF48071384800F054FCFB7903F0010314
:10117C00FB73FB7B1A460121334800F04AFCFB79D8
:10118C005B08DBB203F00103FB73FB7B1A46022105
:10119C002D4800F03EFCFB799B08DBB203F0010309
:1011AC00FB73FB7B1A460421274800F032FCFB79C9
:1011BC00DB08DBB203F00103FB73FB7B1A4608214F
:1011CC00214800F026FCFB791B09DBB203F001037C
:1011DC00FB73FB7B1A4610211B4800F01AFCFB79B1
:1011EC005B09DBB203F00103FB73FB7B1A46202186
:1011FC00154800F00EFCFB799B09DBB203F00103F0
:10120C00FB73FB7B1A4640210F4800F002FCFB7974
:10121C00DB09FB73FB7B1A4680210B4800F0F9FBC2
:10122C0001224FF40071084800F0F3FB052000F098
:10123C002BF900224FF40071034800F0EAFB00BFC9
:10124C001037BD4680BD00BF0008014080B582B09C
:10125C0000AF786008E07B681B7801211846FFF727
:10126C0075FF7B6801337B607B681B78002BF2D1A8
:10127C0000BF00BF0837BD4680BD000080B483B0FE
:10128C0000AF7860054A7B681360054B00221A603A
:10129C0000BF0C37BD4680BC704700BFCC0100209E
:1012AC00D001002080B483B000AF7860054A7B6821
:1012BC001360054B00221A6000BF0C37BD4680BC82
:1012CC00704700BFD4010020D801002080B483B047
:1012DC0000AF7860054A7B681360054B00221A60EA
:1012EC0000BF0C37BD4680BC704700BFDC0100203E
:1012FC00E001002080B400AF194B1B68002B0BDD04
:10130C00174B1B68013B164A1360154B1B68002BCF
:10131C0002DC144B01221A60134B1B68002B0BDDF3
:10132C00114B1B68013B104A13600F4B1B68002BC1
:10133C0002DC0E4B01221A600D4B1B68002B0BDDDF
:10134C000B4B1B68013B0A4A1360094B1B68002BB3
:10135C0002DC084B01221A6000BFBD4680BC7047FE
:10136C00CC010020D0010020D4010020D8010020A5
:10137C00DC010020E0010020FFF7CAFE0B480C49FD
:10138C000C4A002302E0D458C4500433C4188C42D5
:10139C00F9D3094A094C002301E013600432A2423C
:1013AC00FBD302F031FBFFF7EBF970470000002094
:1013BC005C0000205C4400085C000020300300202E
:1013CC00FEE7000080B500AF084B1B68074A43F0EE
:1013DC0010031360032000F047F90F2000F008F809
:1013EC00FFF7B4FD0023184680BD00BF002002406B
:1013FC0080B582B000AF7860124B1A68124B1B7824
:10140C0019464FF47A73B3FBF1F3B2FBF3F31846BE
:10141C0000F05FF90346002B01D001230EE07B683E
:10142C000F2B0AD8002279684FF0FF3000F027F913
:10143C00064A7B681360002300E001231846083736
:10144C00BD4680BD000000200800002004000020E4
:10145C0080B400AF054B1B781A46054B1B68134430
:10146C00034A136000BFBD4680BC704708000020D3
:10147C00E401002080B400AF024B1B681846BD4647
:10148C0080BC7047E401002080B584B000AF786068
:10149C00FFF7F0FFB8607B68FB60FB68B3F1FF3FC0
:1014AC0005D00A4B1B781A46FB681344FB6000BF3F
:1014BC00FFF7E0FF0246BB68D31AFA689A42F7D8E6
:1014CC0000BF00BF1037BD4680BD00BF0800002024
:1014DC0080B485B000AF78607B6803F00703FB60D5
:1014EC000C4BDB68BB60BA684FF6FF031340BB6064
:1014FC00FB681A02BB68134343F0BF6343F4003329
:10150C00BB60044ABB68D36000BF1437BD4680BCC7
:10151C00704700BF00ED00E080B400AF044BDB6807
:10152C001B0A03F007031846BD4680BC704700BF7A
:10153C0000ED00E080B483B000AF0346FB7197F977
:10154C000730002B0BDBFB7903F01F02064997F9E0
:10155C0007305B09012000FA02F241F8232000BF9A
:10156C000C37BD4680BC704700E100E080B483B00E
:10157C0000AF03463960FB7197F90730002B0ADB8B
:10158C003B68DAB20C4997F907301201D2B20B441E
:10159C0083F800230AE03B68DAB20849FB7903F0D0
:1015AC000F03043B1201D2B20B441A7600BF0C3766
:1015BC00BD4680BC704700BF00E100E000ED00E0DC
:1015CC0080B489B000AFF860B9607A60FB6803F052
:1015DC000703FB61FB69C3F10703042B28BF04233A
:1015EC00BB61FB690433062B02D9FB69033B00E0AA
:1015FC0000237B614FF0FF32BB6902FA03F3DA433D
:10160C00BB681A407B699A404FF0FF317B6901FA45
:10161C0003F3D9437B680B40134318462437BD466C
:10162C0080BC704780B582B000AF78607B68013BAE
:10163C00B3F1807F01D301230FE00A4A7B68013BA1
:10164C0053600F214FF0FF30FFF790FF054B002246
:10165C009A60044B07221A60002318460837BD46CF
:10166C0080BD00BF10E000E080B582B000AF7860B4
:10167C007868FFF72DFF00BF0837BD4680BD80B5E9
:10168C0086B000AF0346B9607A60FB7300237B61C0
:10169C00FFF742FF78617A68B9687869FFF790FFC5
:1016AC00024697F90F3011461846FFF75FFF00BF4F
:1016BC001837BD4680BD80B582B000AF0346FB71C4
:1016CC0097F907301846FFF735FF00BF0837BD46BE
:1016DC0080BD80B582B000AF78607868FFF7A2FF5C
:1016EC00034618460837BD4680BD000080B48BB059
:1016FC0000AF7860396000237B6200233B6261E1BC
:10170C0001227B6A02FA03F3FB613B681B68FA69EE
:10171C001340BB61BA69FB699A4240F050813B6847
:10172C005B68974A93425ED0954A934275D8954A26
:10173C00934258D0934A93426FD8934A934252D0D3
:10174C00914A934269D8914A93424CD08F4A934222
:10175C0063D88F4A934246D08D4A93425DD8122B60
:10176C002AD8122B59D801A252F823F0F3170008EB
:10177C00CD170008DF1700082118000827180008EB
:10178C002718000827180008271800082718000831
:10179C002718000827180008271800082718000821
:1017AC002718000827180008271800082718000811
:1017BC00D5170008E9170008764A934213D02CE09D
:1017CC003B68DB683B6229E03B68DB6804333B62C7
:1017DC0024E03B68DB6808333B621FE03B68DB6856
:1017EC000C333B621AE03B689B68002B02D104234C
:1017FC003B6213E03B689B68012B05D108233B62DD
:10180C007B68FA691A6109E008233B627B68FA6914
:10181C005A6103E000233B6200E000BFBB69FF2B71
:10182C0001D87B6801E07B6804337B61BB69FF2BCB
:10183C0002D87B6A9B0002E07B6A083B9B003B6101
:10184C007B691A680F213B6901FA03F3DB431A40E9
:10185C00396A3B6901FA03F31A437B691A603B68E6
:10186C005B6803F08053002B00F0A9804A4B9B6906
:10187C00494A43F001039361474B9B6903F0010311
:10188C00BB60BB68454A7B6A9B08023352F8233025
:10189C00FB607B6A03F003039B000F2202FA03F345
:1018AC00DB43FA681340FB607B683D4A93420DD0E2
:1018BC007B683C4A934207D07B683B4A934201D1F8
:1018CC00022304E0032302E0012300E000237A6AF0
:1018DC0002F0030292009340FA681343FB602F4915
:1018EC007B6A9B080233FA6841F823203B685B68EB
:1018FC0003F48013002B06D02C4B9A682B49BB6940
:10190C0013438B6006E0294B9A68BB69DB4327497C
:10191C0013408B603B685B6803F40013002B06D00C
:10192C00224BDA682149BB691343CB6006E01F4B9D
:10193C00DA68BB69DB431D491340CB603B685B68CD
:10194C0003F40033002B06D0184B5A681749BB69B7
:10195C0013434B6006E0154B5A68BB69DB431349D4
:10196C0013404B603B685B6803F48033002B1FD043
:10197C000E4B1A680D49BB6913430B601FE000BF87
:10198C000000321000003110000022100000211065
:10199C000000121000001110001002400000014065
:1019AC0000080140000C01400010014000040140FF
:1019BC000B4B1A68BB69DB43094913400B607B6A0C
:1019CC0001337B623B681A687B6A22FA03F3002BB3
:1019DC007FF496AE00BF00BF2C37BD4680BC70476D
:1019EC000004014080B485B000AF78600B467B806A
:1019FC007B689A687B881340002B02D00123FB7311
:101A0C0001E00023FB73FB7B18461437BD4680BCFA
:101A1C00704780B483B000AF78600B467B80134670
:101A2C007B707B78002B03D07A887B681A6103E08B
:101A3C007B881A047B681A6100BF0C37BD4680BCDA
:101A4C00704780B485B000AF78600B467B807B68B4
:101A5C00DB68FB607A88FB6813401A04FB68D94387
:101A6C007B880B401A437B681A6100BF1437BD4654
:101A7C0080BC704780B400AF034B01221A6000BFDA
:101A8C00BD4680BC704700BF20000E4280B586B0BA
:101A9C0000AF78607B68002B01D1012372E27B6878
:101AAC001B6803F00103002B00F08780924B5B68EE
:101ABC0003F00C03042B0CD08F4B5B6803F00C036E
:101ACC00082B12D18C4B5B6803F48033B3F5803F49
:101ADC000BD1894B1B6803F40033002B6CD07B6853
:101AEC005B68002B68D101234CE27B685B68B3F523
:101AFC00803F06D1804B1B687F4A43F480331360D0
:101B0C002EE07B685B68002B0CD17B4B1B687A4A00
:101B1C0023F480331360784B1B68774A23F48023BB
:101B2C0013601DE07B685B68B3F5A02F0CD1724B82
:101B3C001B68714A43F4802313606F4B1B686E4A19
:101B4C0043F4803313600BE06B4B1B686A4A23F43D
:101B5C0080331360684B1B68674A23F4802313603F
:101B6C007B685B68002B13D0FFF784FC386108E0BE
:101B7C00FFF780FC02463B69D31A642B01D903237F
:101B8C0000E25D4B1B6803F40033002BF0D014E033
:101B9C00FFF770FC386108E0FFF76CFC02463B690C
:101BAC00D31A642B01D90323ECE1534B1B6803F4C8
:101BBC000033002BF0D100E000BF7B681B6803F002
:101BCC000203002B63D04C4B5B6803F00C03002B1F
:101BDC000BD0494B5B6803F00C03082B1CD1464B14
:101BEC005B6803F48033002B16D1434B1B6803F066
:101BFC000203002B05D07B681B69012B01D001234C
:101C0C00C0E13D4B1B6823F0F8027B685B69DB008D
:101C1C00394913430B603AE07B681B69002B20D0D9
:101C2C00364B01221A60FFF725FC386108E0FFF7FC
:101C3C0021FC02463B69D31A022B01D90323A1E1F3
:101C4C002D4B1B6803F00203002BF0D02A4B1B68B2
:101C5C0023F0F8027B685B69DB00274913430B60B8
:101C6C0015E0264B00221A60FFF704FC386108E0EF
:101C7C00FFF700FC02463B69D31A022B01D9032360
:101C8C0080E11D4B1B6803F00203002BF0D17B6835
:101C9C001B6803F00803002B3AD07B689B69002B70
:101CAC0019D0174B01221A60FFF7E4FB386108E0EA
:101CBC00FFF7E0FB02463B69D31A022B01D9032341
:101CCC0060E10D4B5B6A03F00203002BF0D00120A6
:101CDC0000F0BAFA1CE00A4B00221A60FFF7CAFBAC
:101CEC0038610FE0FFF7C6FB02463B69D31A022BA3
:101CFC0008D9032346E100BF001002400000424215
:101D0C0080044242924B5B6A03F00203002BE9D140
:101D1C007B681B6803F00403002B00F0A6800023F3
:101D2C00FB758B4BDB6903F08053002B0DD1884B7B
:101D3C00DB69874A43F08053D361854BDB6903F041
:101D4C008053BB60BB680123FB75824B1B6803F49B
:101D5C008073002B18D17F4B1B687E4A43F4807331
:101D6C001360FFF787FB386108E0FFF783FB02463F
:101D7C003B69D31A642B01D9032303E1754B1B6810
:101D8C0003F48073002BF0D07B68DB68012B06D149
:101D9C006F4B1B6A6E4A43F0010313622DE07B68A4
:101DAC00DB68002B0CD16A4B1B6A694A23F00103D8
:101DBC001362674B1B6A664A23F0040313621CE030
:101DCC007B68DB68052B0CD1614B1B6A604A43F0C6
:101DDC00040313625E4B1B6A5D4A43F001031362FA
:101DEC000BE05B4B1B6A5A4A23F001031362584BFE
:101DFC001B6A574A23F0040313627B68DB68002BD1
:101E0C0015D0FFF737FB38610AE0FFF733FB0246CA
:101E1C003B69D31A41F28832934201D90323B1E0D2
:101E2C004B4B1B6A03F00203002BEED014E0FFF7C0
:101E3C0021FB38610AE0FFF71DFB02463B69D31A10
:101E4C0041F28832934201D903239BE0404B1B6A39
:101E5C0003F00203002BEED1FB7D012B05D13C4B93
:101E6C00DB693B4A23F08053D3617B68DB69002B31
:101E7C0000F08780364B5B6803F00C03082B61D0B5
:101E8C007B68DB69022B46D1334B00221A60FFF7CB
:101E9C00F1FA386108E0FFF7EDFA02463B69D31A14
:101EAC00022B01D903236DE0294B1B6803F000734F
:101EBC00002BF0D17B681B6AB3F5803F08D1244B13
:101ECC005B6823F400327B689B68214913434B60A9
:101EDC001F4B5B6823F474127B68196A7B685B6A1E
:101EEC000B431B4913434B601B4B01221A60FFF73A
:101EFC00C1FA386108E0FFF7BDFA02463B69D31A14
:101F0C00022B01D903233DE0114B1B6803F0007336
:101F1C00002BF0D035E0104B00221A60FFF7AAFA24
:101F2C00386108E0FFF7A6FA02463B69D31A022B88
:101F3C0001D9032326E0064B1B6803F00073002B2A
:101F4C00F0D11EE07B68DB69012B07D1012319E07E
:101F5C000010024000700040600042420B4B5B6876
:101F6C00FB60FB6803F480327B681B6A9A4206D1E3
:101F7C00FB6803F470127B685B6A9A4201D0012300
:101F8C0000E0002318461837BD4680BD0010024003
:101F9C0080B584B000AF786039607B68002B01D1CC
:101FAC000123D0E06A4B1B6803F007033A689A429E
:101FBC0010D9674B1B6823F0070265493B68134334
:101FCC000B60634B1B6803F007033A689A4201D01D
:101FDC000123B8E07B681B6803F00203002B20D0C0
:101FEC007B681B6803F00403002B05D0594B5B681E
:101FFC00584A43F4E06353607B681B6803F00803A2
:10200C00002B05D0534B5B68524A43F4605353602A
:10201C00504B5B6823F0F0027B689B684D4913437F
:10202C004B607B681B6803F00103002B40D07B687E
:10203C005B68012B07D1474B1B6803F40033002B63
:10204C0015D101237FE07B685B68022B07D1414BE4
:10205C001B6803F00073002B09D1012373E03D4B87
:10206C001B6803F00203002B01D101236BE0394BF9
:10207C005B6823F003027B685B68364913434B6053
:10208C00FFF7F8F9F8600AE0FFF7F4F90246FB688D
:10209C00D31A41F28832934201D9032353E02D4BDA
:1020AC005B6803F00C027B685B689B009A42EBD187
:1020BC00274B1B6803F007033A689A4210D2244B53
:1020CC001B6823F0070222493B6813430B60204B2B
:1020DC001B6803F007033A689A4201D0012332E0EF
:1020EC007B681B6803F00403002B08D0194B5B685A
:1020FC0023F4E0627B68DB68164913434B607B6812
:10210C001B6803F00803002B09D0124B5B6823F407
:10211C0060527B681B69DB000E4913434B6000F077
:10212C0021F802460B4B5B681B0903F00F030A49AD
:10213C00CB5C22FA03F3094A1360094B1B6818465F
:10214C00FFF756F9002318461037BD4680BD00BF77
:10215C000020024000100240E04300080000002074
:10216C000400002080B487B000AF0023FB60002384
:10217C00BB6000237B6100237B6000233B611E4B13
:10218C005B68FB60FB6803F00C03042B02D0082B8C
:10219C0003D027E0194B3B6127E0FB689B0C03F055
:1021AC000F03174AD35C7B60FB6803F48033002B6E
:1021BC0010D0114B5B685B0C03F00103114AD35C2C
:1021CC00BB607B680D4A03FB02F2BB68B2FBF3F306
:1021DC007B6104E07B680C4A02FB03F37B617B6947
:1021EC003B6102E0054B3B6100BF3B6918461C3765
:1021FC00BD4680BC704700BF0010024000127A0040
:10220C00F84300080844000800093D0080B400AF02
:10221C00024B1B681846BD4680BC7047000000206E
:10222C0080B500AFFFF7F2FF0246054B5B68DB0A97
:10223C0003F007030349CB5C22FA03F3184680BD75
:10224C0000100240F043000880B485B000AF786005
:10225C000A4B1B680A4AA2FB03235B0A7A6802FB3F
:10226C0003F3FB6000BFFB685A1EFA60002BF9D128
:10227C0000BF00BF1437BD4680BC70470000002073
:10228C00D34D621080B586B000AF786000233B61FF
:10229C000023FB607B681B6803F00103002B7DD0DF
:1022AC000023FB754F4BDB6903F08053002B0DD1E2
:1022BC004C4BDB694B4A43F08053D361494BDB6990
:1022CC0003F08053BB60BB680123FB75464B1B6856
:1022DC0003F48073002B18D1434B1B68424A43F420
:1022EC0080731360FFF7C6F8386108E0FFF7C2F897
:1022FC0002463B69D31A642B01D903236DE03A4B98
:10230C001B6803F48073002BF0D0364B1B6A03F46C
:10231C004073FB60FB68002B2ED07B685B6803F47A
:10232C004073FA689A4227D02E4B1B6A23F44073F1
:10233C00FB602E4B01221A602C4B00221A60294A9A
:10234C00FB681362FB6803F00103002B14D0FFF74A
:10235C0091F838610AE0FFF78DF802463B69D31A11
:10236C0041F28832934201D9032336E01D4B1B6A9C
:10237C0003F00203002BEED01A4B1B6A23F44072BD
:10238C007B685B68174913430B62FB7D012B05D1FE
:10239C00144BDB69134A23F08053D3617B681B68B1
:1023AC0003F00203002B08D00E4B5B6823F4404271
:1023BC007B689B680B4913434B607B681B6803F07D
:1023CC001003002B08D0074B5B6823F480027B685A
:1023DC00DB68044913434B60002318461837BD468D
:1023EC0080BD00BF0010024000700040400442421B
:1023FC0080B588B000AF786000237B610023FB615F
:10240C0000233B610023FB600023BB617B68102B26
:10241C000AD07B68102B00F28A807B68012B45D098
:10242C007B68022B75D082E0464B5B68FB60454BAA
:10243C001B6803F08073002B7BD0FB689B0C03F0B4
:10244C000F03414AD35C3B61FB6803F48033002BE0
:10245C0015D03C4B5B685B0C03F001033B4AD35C2F
:10246C007B61FB6803F48033002B0DD0384A7B6909
:10247C00B2FBF3F23B6902FB03F3FB6104E03B6943
:10248C00344A02FB03F3FB612E4B5B6803F48003BD
:10249C00B3F5800F02D1FB69BB614AE0FB695B00BD
:1024AC002D4AA2FB03235B08BB6142E0254B1B6A50
:1024BC00FB60FB6803F44073B3F5807F08D1FB68C5
:1024CC0003F00203002B03D04FF40043BB611FE069
:1024DC00FB6803F44073B3F5007F09D1194B5B6AB9
:1024EC0003F00203002B03D049F64043BB610FE01D
:1024FC00FB6803F44073B3F5407F1CD1114B1B6890
:10250C0003F40033002B16D04FF22443BB6112E0CE
:10251C0011E0FFF785FE02460A4B5B689B0B03F04C
:10252C00030301335B00B2FBF3F3BB6104E000BFB8
:10253C0002E000BF00E000BFBB6918462037BD4673
:10254C0080BD00BF001002400C4400081C44000871
:10255C0000127A0000093D00ABAAAAAA80B584B08B
:10256C0000AF78600023FB607B68002B01D1012356
:10257C007AE07B685B7CDBB2002B05D17B680022A8
:10258C001A747868FEF714FD7B6802225A74786816
:10259C0000F083FB0346002B04D07B6804225A74A2
:1025AC00012361E0786800F03CFC0346002B04D06A
:1025BC007B6804225A74012356E07B681B685A68B6
:1025CC007B681B6822F007025A607B689B68002BB3
:1025DC0005D0274B1B6B264A23F001031363244BB6
:1025EC00DB6A23F460727B689B6821491343CB62DE
:1025FC007B685B68B3F1FF3F03D07B685B68FB6073
:10260C000EE00120FFF7F4FEF860FB68002B04D10C
:10261C007B6804225A74012326E0FB68013BFB60B3
:10262C00FB681A0C7B681B6802F00F029A607B68CF
:10263C001B68FA6892B2DA60786800F01AFC0346FC
:10264C00002B04D07B6804225A7401230CE07B68B5
:10265C000022DA737B6801225A737B6801229A7319
:10266C007B6801225A74002318461037BD4680BD82
:10267C00006C004090B587B000AFF860B9607A602C
:10268C0000237B6100233B61FB68002B02D0BB68FD
:10269C00002B01D1012380E0FB681B7C012B01D1B5
:1026AC0002237AE0FB6801221A74FB6802225A7436
:1026BC007B68002B13D1BB681B781A464FF46163FF
:1026CC0003FB02F2BB685B7819460B461B015B1AD5
:1026DC009B001344BA68927813447B611EE0BB687C
:1026EC001B78184600F00AFC03461A464FF4616347
:1026FC0003FB02F4BB685B78184600F0FFFB034653
:10270C001A4613461B019B1A9B001C44BB689B7802
:10271C00184600F0F3FB034623447B617969F868A3
:10272C0000F018FB0346002B07D0FB6804225A74F8
:10273C00FB6800221A7401232FE0FB681B685A689F
:10274C00FB681B6822F005025A60F86800F029FB50
:10275C0038613B69B3F1FF3F18D03A697B699A4203
:10276C0014D23B6903F5A83303F5C0733B61396997
:10277C00F86800F02FFB0346002B07D0FB680422FF
:10278C005A74FB6800221A74012306E0FB680122CC
:10279C005A74FB6800221A74002318461C37BD4675
:1027AC0090BD000080B588B000AFF860B9607A6069
:1027BC000023BB610023FB6100237B6100233B6191
:1027CC00FB68002B02D0BB68002B01D10123B5E0C4
:1027DC00FB681B685B6803F00403002B01D001232A
:1027EC00ACE0F86800F086FAB861BB69554AA2FB08
:1027FC000323DB0A3B61BA69524BA3FB0213DB0ACE
:10280C004FF4616101FB03F3D31A4F4AA2FB03237C
:10281C005B09DAB2BB685A70BB694A4AA2FB031265
:10282C00D20A4FF4616101FB02F29A1A464BA3FBE8
:10283C00021359090B461B015B1A9B00D11ACAB231
:10284C00BB689A703B69172B55D93B693F4AA2FB71
:10285C0003231B097B6139693C4BA3FB01231A0938
:10286C0013465B001344DB00CA1AD2B2BB681A7061
:10287C00F86800F096FAF861FB69B3F1FF3F08D0F5
:10288C00FA69BB699A4204D9FA69BB69D31AFB612C
:10289C0002E04FF0FF33FB617B692D4A02FB03F32F
:1028AC00BA69D31ABB61B969F86800F053FA0346E8
:1028BC00002B01D0012341E0FB69B3F1FF3F0CD0A9
:1028CC00FA69BB691344FB61F969F86800F082FA94
:1028DC000346002B0AD0012330E0F969F86800F0B8
:1028EC0079FA0346002B01D0012327E07969F868B7
:1028FC0000F021FB03E03B69DAB2BB681A707B681D
:10290C00002B1AD0BB681B78184600F0DAFA034685
:10291C001A46BB681A70BB685B78184600F0D1FA8F
:10292C0003461A46BB685A70BB689B78184600F081
:10293C00C8FA03461A46BB689A700023184620371B
:10294C00BD4680BDC5B3A29189888888ABAAAAAAC6
:10295C008051010080B588B000AFF860B9607A6032
:10296C000023FB610023BB6100237B61FB68002B10
:10297C0002D0BB68002B01D1012397E0FB681B7CC4
:10298C00012B01D1022391E0FB6801221A74FB6830
:10299C0002225A747B68002B0CD1BB68DA78FB6876
:1029AC00DA73BB685A78FB685A73BB689A78FB6811
:1029BC009A731AE0BB68DB78184600F09FFA03465E
:1029CC001A46FB68DA73BB685B78184600F096FA17
:1029DC0003461A46FB685A73BB689B78184600F08E
:1029EC008DFA03461A46FB689A73FB68DB7B184624
:1029FC00FB68597BFB689B7B1A4600F077FB034610
:102A0C001A46FB681A73FB681A7BBB681A70F86865
:102A1C0000F070F9F861FB69264AA2FB0323DB0A7C
:102A2C007B617B69182B3AD97B69234AA2FB032370
:102A3C001B09224A02FB03F3FA69D31AFB61F969F9
:102A4C00F86800F087F90346002B07D0FB680422D6
:102A5C005A74FB6800221A74012327E0F86800F00E
:102A6C00A0F9B861BB69B3F1FF3F18D0BA69FB6933
:102A7C009A4214D2BB6903F5A83303F5C073BB614A
:102A8C00B969F86800F0A6F90346002B07D0FB687B
:102A9C0004225A74FB6800221A74012306E0FB68B6
:102AAC0001225A74FB6800221A740023184620373E
:102ABC00BD4680BDC5B3A291ABAAAAAA80510100A4
:102ACC0080B586B000AFF860B9607A6007F1140386
:102ADC0000210A461A800A469A70FB68002B02D025
:102AEC00BB68002B01D101233AE007F1140300224B
:102AFC001946F868FFF756FE0346002B01D0012358
:102B0C002EE0FB681A7BBB681A70FB68DA7BBB682B
:102B1C00DA70FB685A7BBB685A70FB689A7BBB689F
:102B2C009A707B68002B1AD0BB68DB78184600F0D3
:102B3C00C8F903461A46BB68DA70BB685B7818465E
:102B4C0000F0BFF903461A46BB685A70BB689B7805
:102B5C00184600F0B6F903461A46BB689A70002373
:102B6C0018461837BD4680BD90B589B000AFF860E7
:102B7C00B9607A600023FB6107F1140300210A4657
:102B8C001A800A469A70FB68002B02D0BB68002B97
:102B9C0001D101237DE0FB681B7C012B01D10223B9
:102BAC0077E0FB6801221A74FB6802225A7407F161
:102BBC00140300221946F868FFF7F4FD0346002BB6
:102BCC0001D0012365E03B7D1A464FF4616303FBA2
:102BDC0002F27B7D19460B461B015B1A9B001344CA
:102BEC00BA7D1344BB617B68002B13D1BB681B7887
:102BFC001A464FF4616303FB02F2BB685B7819461B
:102C0C000B461B015B1A9B001344BA689278134461
:102C1C00FB611EE0BB681B78184600F06FF9034699
:102C2C001A464FF4616303FB02F4BB685B781846E9
:102C3C0000F064F903461A4613461B019B1A9B00CD
:102C4C001C44BB689B78184600F058F90346234493
:102C5C00FB61FA69BB699A4205D2FB6903F5A8339B
:102C6C0003F5C073FB61F969F86800F0B3F803462B
:102C7C00002B07D0FB6804225A74FB6800221A74DC
:102C8C00012306E0FB6801225A74FB6800221A74C7
:102C9C00002318462437BD4690BD80B584B000AFE4
:102CAC0078600023FB607B68002B01D101231DE0C1
:102CBC007B681B685A687B681B6822F008025A60A4
:102CCC00FEF7D8FBF86009E0FEF7D4FB0246FB6880
:102CDC00D31AB3F57A7F01D9032307E07B681B680D
:102CEC005B6803F00803002BEED000231846103766
:102CFC00BD4680BD80B487B000AF786000237B8276
:102D0C0000233B820023FB8100237B617B681B68D3
:102D1C009B697B827B681B68DB69FB817B681B681A
:102D2C009B693B827A8A3B8A9A4208D03B8A1A0476
:102D3C007B681B68DB699BB213437B6104E07B8A75
:102D4C001A04FB8913437B617B6918461C37BD460B
:102D5C0080BC704780B584B000AF786039600023C8
:102D6C00FB73786800F05DF80346002B02D001235A
:102D7C00FB7311E07B681B683A68120C9A617B68E4
:102D8C001B683A6892B2DA61786800F072F8034610
:102D9C00002B01D00123FB73FB7B18461037BD467B
:102DAC0080BD80B485B000AF78600023FB81002328
:102DBC00BB817B681B681B6AFB817B681B685B6A39
:102DCC00BB81FB891A04BB89134318461437BD46D3
:102DDC0080BC704780B584B000AF78603960002348
:102DEC00FB73786800F01DF80346002B02D001231A
:102DFC00FB7311E07B681B683A68120C1A627B68E3
:102E0C001B683A6892B25A62786800F032F803464E
:102E1C00002B01D00123FB73FB7B18461037BD46FA
:102E2C0080BD80B584B000AF78600023FB60FEF7F6
:102E3C0021FBF86009E0FEF71DFB0246FB68D31A84
:102E4C00B3F57A7F01D903230FE07B681B685B68BD
:102E5C0003F02003002BEED07B681B685A687B685C
:102E6C001B6842F010025A60002318461037BD460A
:102E7C0080BD80B584B000AF78600023FB607B68B8
:102E8C001B685A687B681B6822F010025A60FEF7B8
:102E9C00F1FAF86009E0FEF7EDFA0246FB68D31A86
:102EAC00B3F57A7F01D9032307E07B681B685B6865
:102EBC0003F02003002BEED0002318461037BD463C
:102ECC0080BD80B485B000AF0346FB710023FB606E
:102EDC0005E0FB680133FB60FB790A3BFB71FB7976
:102EEC00092BF6D8FB68DBB21B01DAB2FB79134372
:102EFC00DBB218461437BD4680BC704780B485B031
:102F0C0000AF0346FB710023FB60FB791B09DBB2AE
:102F1C001A4613469B0013445B00FB60FB7903F0DD
:102F2C000F03DAB2FB68DBB21344DBB2184614377A
:102F3C00BD4680BC704780B586B000AF7860396004
:102F4C0000237B6100233B610023FB600023BB60FB
:102F5C007B68DB7B7B617B685B7B3B617B689B7B02
:102F6C00FB600023BB606FE03B69012B11D03B6918
:102F7C00032B0ED03B69052B0BD03B69072B08D0DC
:102F8C003B69082B05D03B690A2B02D03B690C2B03
:102F9C0017D1FB681E2B03D8FB680133FB6050E094
:102FAC003B690C2B05D03B6901333B610123FB6072
:102FBC0047E001233B610123FB607B6901337B61AB
:102FCC003FE03B69042B08D03B69062B05D03B69DD
:102FDC00092B02D03B690B2B0CD1FB681D2B03D8A2
:102FEC00FB680133FB602CE03B6901333B6101233F
:102FFC00FB6026E03B69022B23D1FB681B2B03D81B
:10300C00FB680133FB601CE0FB681C2B11D17B6956
:10301C009BB2184600F038F80346002B03D0FB682F
:10302C000133FB600DE03B6901333B610123FB6025
:10303C0007E0FB681D2B04D13B6901333B61012385
:10304C00FB60BB680133BB60BA683B689A428BD3A8
:10305C007B69DAB27B68DA733B69DAB27B685A73E4
:10306C00FB68DAB27B689A733B69DBB2FA68D2B25E
:10307C001946786900F03AF803461A467B681A73C9
:10308C0000BF1837BD4680BD80B483B000AF034687
:10309C00FB80FB8803F003039BB2002B01D00023C1
:1030AC001DE0FB88104AA2FB03125209642101FBAC
:1030BC0002F29B1A9BB2002B01D001230FE0FB887C
:1030CC00094AA2FB0312D2094FF4C87101FB02F2A8
:1030DC009B1A9BB2002B01D1012300E00023184660
:1030EC000C37BD4680BC70471F85EB5180B485B052
:1030FC0000AF78600B46FB701346BB700023BB60BF
:10310C000023FB607B6803F5FA63BB60FB78022B42
:10311C002DD8FA7813465B001344DB009B1A2C4A1B
:10312C00A2FB03235A08BB781A44BB681A44BB6839
:10313C00013B9B081A44BB68013B2649A1FB0313C6
:10314C005B09D21ABB68013B2249A1FB0313DB09C3
:10315C0013441A1D204BA3FB0213D11A49080B442C
:10316C0099080B46DB005B1AD31AFB6029E0FA784E
:10317C0013465B001344DB009B1A154AA2FB032386
:10318C005A08BB781A44BB681A44BB689B081A449B
:10319C00BB681049A1FB03135B09D21ABB680D492C
:1031AC00A1FB0313DB0913449A1C0B4BA3FB021367
:1031BC00D11A49080B4499080B46DB005B1AD31A49
:1031CC00FB60FB68DBB218461437BD4680BC704709
:1031DC00398EE3381F85EB512549922480B582B096
:1031EC0000AF78607B68002B01D1012341E07B6844
:1031FC0093F83D30DBB2002B06D17B68002283F8BC
:10320C003C207868FDF7F8FE7B68022283F83D20AD
:10321C007B681A687B6804331946104600F06EFA16
:10322C007B68012283F846207B68012283F83E20CC
:10323C007B68012283F83F207B68012283F84020C1
:10324C007B68012283F841207B68012283F84220AD
:10325C007B68012283F843207B68012283F8442099
:10326C007B68012283F845207B68012283F83D208E
:10327C00002318460837BD4680BD000080B485B0D9
:10328C0000AF78607B6893F83D30DBB2012B01D046
:10329C00012335E07B68022283F83D207B681B68A4
:1032AC00DA687B681B6842F00102DA607B681B6895
:1032BC00164A934209D07B681B68B3F1804F04D047
:1032CC007B681B68124A934211D17B681B689B6810
:1032DC0003F00703FB60FB68062B10D07B681B68B0
:1032EC001A687B681B6842F001021A6007E07B6871
:1032FC001B681A687B681B6842F001021A60002385
:10330C0018461437BD4680BC704700BF002C0140E6
:10331C000004004080B582B000AF78607B681B6809
:10332C001B6903F00203022B22D17B681B68DB684C
:10333C0003F00203022B1BD17B681B686FF00202A7
:10334C001A617B6801221A777B681B689B6903F002
:10335C000303002B03D0786800F0B4F905E078681B
:10336C0000F0A7F9786800F0B6F97B6800221A77AC
:10337C007B681B681B6903F00403042B22D17B6858
:10338C001B68DB6803F00403042B1BD17B681B68F0
:10339C006FF004021A617B6802221A777B681B6843
:1033AC009B6903F44073002B03D0786800F08AF912
:1033BC0005E0786800F07DF9786800F08CF97B689E
:1033CC0000221A777B681B681B6903F00803082B23
:1033DC0022D17B681B68DB6803F00803082B1BD128
:1033EC007B681B686FF008021A617B6804221A77ED
:1033FC007B681B68DB6903F00303002B03D0786840
:10340C0000F060F905E0786800F053F9786800F096
:10341C0062F97B6800221A777B681B681B6903F0D2
:10342C001003102B22D17B681B68DB6803F01003A0
:10343C00102B1BD17B681B686FF010021A617B6824
:10344C0008221A777B681B68DB6903F44073002B36
:10345C0003D0786800F036F905E0786800F029F9B7
:10346C00786800F038F97B6800221A777B681B6853
:10347C001B6903F00103012B0ED17B681B68DB6811
:10348C0003F00103012B07D17B681B686FF001026D
:10349C001A617868FDF75AFB7B681B681B6903F09F
:1034AC008003802B0ED17B681B68DB6803F08003E4
:1034BC00802B07D17B681B686FF080021A617868DB
:1034CC0000F06BFA7B681B681B6903F04003402B10
:1034DC000ED17B681B68DB6803F04003402B07D1DF
:1034EC007B681B686FF040021A61786800F0FCF88A
:1034FC007B681B681B6903F02003202B0ED17B68B3
:10350C001B68DB6803F02003202B07D17B681B684A
:10351C006FF020021A61786800F036FA00BF0837A5
:10352C00BD4680BD80B584B000AF786039600023A3
:10353C00FB737B6893F83C30012B01D10223B4E080
:10354C007B68012283F83C207B68022283F83D20B3
:10355C007B681B689B68BB60BB6823F07703BB6010
:10356C00BB6823F47F43BB607B681B68BA689A60B6
:10357C003B681B68B3F5005F3ED0B3F5005F00F20B
:10358C008780B3F5805F00F08680B3F5805F7FD8CD
:10359C00702B1AD0702B7BD8602B50D0602B77D827
:1035AC00502B3CD0502B73D8402B58D0402B6FD87D
:1035BC00302B64D0302B6BD8202B60D0202B67D8CD
:1035CC00002B5CD0102B5AD062E07B6818683B68EB
:1035DC0099683B685A683B68DB6800F05EF97B6869
:1035EC001B689B68BB60BB6843F07703BB607B6860
:1035FC001B68BA689A604FE07B6818683B689968EA
:10360C003B685A683B68DB6800F047F97B681B68CD
:10361C009A687B681B6842F480429A603CE07B6845
:10362C0018683B6859683B68DB681A4600F0BEF8BE
:10363C007B681B685021184600F015F92CE07B685C
:10364C0018683B6859683B68DB681A4600F0DCF880
:10365C007B681B686021184600F005F91CE07B684C
:10366C0018683B6859683B68DB681A4600F09EF89E
:10367C007B681B684021184600F0F5F80CE07B686D
:10368C001A683B681B681946104600F0ECF803E01A
:10369C000123FB7300E000BF7B68012283F83D200F
:1036AC007B68002283F83C20FB7B18461037BD4614
:1036BC0080BD80B483B000AF786000BF0C37BD46CE
:1036CC0080BC704780B483B000AF786000BF0C370B
:1036DC00BD4680BC704780B483B000AF786000BF3B
:1036EC000C37BD4680BC704780B483B000AF7860A7
:1036FC0000BF0C37BD4680BC7047000080B485B05D
:10370C0000AF786039607B681B68FB607B68254A7A
:10371C00934207D07B68B3F1804F03D07B68224A79
:10372C00934208D1FB6823F07003FB603B685B6835
:10373C00FA681343FB607B681A4A934207D07B6894
:10374C00B3F1804F03D07B68174A934208D1FB68D2
:10375C0023F44073FB603B68DB68FA681343FB603F
:10376C00FB6823F080023B685B691343FB607B685A
:10377C00FA681A603B689A687B68DA623B681A6878
:10378C007B689A627B68074A934203D13B681A694B
:10379C007B681A637B6801225A6100BF1437BD46EF
:1037AC0080BC7047002C01400004004080B487B0FE
:1037BC0000AFF860B9607A60FB681B6A7B61FB68DC
:1037CC001B6A23F00102FB681A62FB689B693B6170
:1037DC003B6923F0F0033B617B681B013A6913439F
:1037EC003B617B6923F00A037B617A69BB681343F5
:1037FC007B61FB683A699A61FB687A691A6200BF5F
:10380C001C37BD4680BC704780B487B000AFF860F1
:10381C00B9607A60FB681B6A7B61FB681B6A23F0EA
:10382C001002FB681A62FB689B693B613B6923F4DD
:10383C0070433B617B681B033A6913433B617B69B3
:10384C0023F0A0037B61BB681B017A6913437B6186
:10385C00FB683A699A61FB687A691A6200BF1C3787
:10386C00BD4680BC704780B485B000AF78603960CD
:10387C007B689B68FB60FB6823F07003FB603A6815
:10388C00FB68134343F00703FB607B68FA689A609C
:10389C0000BF1437BD4680BC704780B487B000AF02
:1038AC00F860B9607A603B60FB689B687B617B6900
:1038BC0023F47F437B613B681A027B681A43BB6825
:1038CC0013437A6913437B61FB687A699A6000BF82
:1038DC001C37BD4680BC704780B485B000AF7860A3
:1038EC0039607B6893F83C30012B01D1022341E015
:1038FC007B68012283F83C207B68022283F83D2000
:10390C007B681B685B68FB607B681B689B68BB60A3
:10391C00FB6823F07003FB603B681B68FA68134379
:10392C00FB607B681B68FA685A607B681B68144AEA
:10393C00934209D07B681B68B3F1804F04D07B683D
:10394C001B68104A93420CD1BB6823F08003BB6008
:10395C003B685B68BA681343BB607B681B68BA68DA
:10396C009A607B68012283F83D207B68002283F8F3
:10397C003C20002318461437BD4680BC704700BF5E
:10398C00002C01400004004080B483B000AF78608C
:10399C0000BF0C37BD4680BC704780B483B000AF0D
:1039AC00786000BF0C37BD4680BC70470EB46FF01A
:1039BC00004100B59CB01DAB02900690079104919C
:1039CC000848094953F8042B0591006802A9019392
:1039DC0000F08EF90022029B1A701CB05DF804EB0B
:1039EC0003B07047580000200802FFFF0346024452
:1039FC00934200D1704703F8011BF9E7014B18689B
:103A0C00704700BF5800002070B500260C4D0D4CBF
:103A1C00641BA410A64209D100F07AFC00260A4DC2
:103A2C000A4C641BA410A64205D170BD55F8043B8A
:103A3C0098470136EEE755F8043B98470136F2E714
:103A4C0054440008544400085444000858440008E6
:103A5C007047704738B50546002940D051F8043CF2
:103A6C000C1F002BB8BFE41800F0DCF81C4A1368DC
:103A7C0033B9636014602846BDE8384000F0D8B80C
:103A8C00A34208D9206821188B4201BF19685B68D2
:103A9C0009182160EDE71A465B680BB1A342FAD90D
:103AAC0011685018A0420BD1206801445018834271
:103ABC001160E0D118685B68084410605360DAE765
:103ACC0002D90C232B60D6E7206821188B4201BF4A
:103ADC0019685B680918216063605460CBE738BDD6
:103AEC002803002070B50E4E0C463168054611B9FE
:103AFC0000F0AAFB30602146284600F0A5FB431CD1
:103B0C000AD0C41C24F00304A04207D0211A284672
:103B1C0000F09AFB013001D14FF0FF34204670BD0C
:103B2C002C0300202DE9F843CD1C25F003050835A6
:103B3C000C2D38BF0C25002D074601DBA94205D9F9
:103B4C000C2300263B603046BDE8F883DFF8D080BC
:103B5C0000F068F8D8F800301C465CBB29463846A3
:103B6C00FFF7C0FF431C044655D1D8F80040264649
:103B7C00002E45D1002C48D023683146384604EB42
:103B8C00030900F061FB81453FD1216838466D1A6D
:103B9C002946FFF7A7FF013037D023682B44236059
:103BAC00D8F80030002B38D05A68A2422BD1002212
:103BBC005A600FE02268521B1FD40B2A17D96119C7
:103BCC00A342256018BF5960636808BFC8F800108D
:103BDC0062514B60384604F10B0600F029F826F0D0
:103BEC000706231DF21AAED09B1BA350ABE7A342D2
:103BFC006268DDD1C8F80020ECE723466468ACE7C6
:103C0C0034467668B4E71346CCE70C2338463B6061
:103C1C0000F00EF897E72560DCE75B60FFDE00BF85
:103C2C00280300200148FFF713BF00BF2403002026
:103C3C000148FFF70EBF00BF240300202DE9F04719
:103C4C001F468E688246BE420C4690460B682CD8A6
:103C5C008A8912F4906F26D06569096905EB4505D0
:103C6C00A3EB010905EBD5757B1C4B446D109D42F4
:103C7C0038BF1D46530527D52946FFF753FF064687
:103C8C0060B34A46216900F0FDFAA38923F49063DE
:103C9C0043F08003A38126614E4426603E46656155
:103CAC00A5EB0905A560BE4200D93E463246414609
:103CBC00206800F0AFFA0020A3689B1BA360236868
:103CCC0033442360BDE8F0872A4600F0E9FA064643
:103CDC000028E0D150462169FFF7BCFE0C23CAF83E
:103CEC000030A3894FF0FF3043F04003A381E9E794
:103CFC002DE9F04F98468B8907461B060D46144656
:103D0C009DB00ED50B6963B94021FFF70BFF2860FE
:103D1C00286120B90C233B604FF0FF30D0E04023EA
:103D2C006B610023099320238DF8293030234FF049
:103D3C000109CDF80C80DFF8A0818DF82A302346DC
:103D4C009A4613F8012B0AB1252AF9D1BAEB040BC8
:103D5C000BD05B46224629463846FFF76FFF0130F1
:103D6C0000F0A980099A5A4409929AF80030002B65
:103D7C0000F0A18000234FF0FF32CDE905230AF1BA
:103D8C00010A049307938DF853301A935446052275
:103D9C0014F8011B504800F067FA049AD8B9D00601
:103DAC0044BF20238DF85330110744BF2B238DF8CB
:103DBC0053309AF800302A2B15D0544600204FF07F
:103DCC000A0C079A214611F8013B303B092B4DD9BF
:103DDC00B0B1079214E0A0EB080309FA03F3134304
:103DEC00A2460493D2E7039B191D1B680391002B79
:103DFC00BBBF5B4242F0020207930793B8BF049229
:103E0C0023782E2B0CD163782A2B34D1039B0234CC
:103E1C001A1D1B680392002BB8BF4FF0FF3305939C
:103E2C00DFF8B8A003225046217800F01DFA38B113
:103E3C004022049BA0EB0A008240134301340493FC
:103E4C0014F8011B062226488DF8281000F00CFAF5
:103E5C00002838D0234B1BBB039B073323F00703ED
:103E6C0008330393099B3344099368E70C460120FC
:103E7C000CFB0232A6E700234FF00A0C1946013462
:103E8C000593204610F8012B303A092A03D9002B50
:103E9C00C6D00591C4E7044601230CFB0121F0E7D1
:103EAC0003AB00932A4638460F4B04A9AFF30080AE
:103EBC00421C0646D6D1AB895B063FF52DAF09985F
:103ECC001DB0BDE8F08F03AB00932A463846064B75
:103EDC0004A900F07DF8EBE71E4400082444000818
:103EEC002844000800000000493C00082DE9F04778
:103EFC00164699468A680B6907469342B8BF134623
:103F0C00336091F843200C46DDF820800AB1013370
:103F1C0033602368990642BF3368023333602568E7
:103F2C0015F0060506D104F1190AE36832689B1AEC
:103F3C00AB422BDC94F84320131E226818BF0123DC
:103F4C00920630D44946384604F14302C04701304A
:103F5C0023D02368226903F00603042B14BF002529
:103F6C0033684FF0000608BFE56804F11A0408BF77
:103F7C00ED1A54F8123C08BF25EAE5759342C4BF0C
:103F8C009B1AED18B5421AD1002008E001235246C5
:103F9C0049463846C047013003D14FF0FF30BDE8E9
:103FAC00F0870135C1E73020E11881F843005A1C35
:103FBC0094F845102244023382F84310C2E70123DF
:103FCC00224649463846C0470130E6D00136D9E78B
:103FDC002DE9FF470F7E9146782F80460C469A4676
:103FEC000C9D01F1430207D8622F0AD8002F00F074
:103FFC00D580582F00F0C18004F1420584F842703E
:10400C003AE0A7F16303152BF6D801A151F823F080
:10401C00754000088940000805400008054000086C
:10402C0005400008054000088940000805400008CC
:10403C000540000805400008054000088F410008B5
:10404C00B54000084941000805400008054000083B
:10405C00B141000805400008B540000805400008C3
:10406C0005400008514100082B681A1D1B682A6086
:10407C0004F1420584F842300123A0E020682B684B
:10408C00070603F10401296001D51E6803E046060A
:10409C00FBD5B3F90060002E03DA2D23764284F8A9
:1040AC0043300A23594812E02B682068191D2960F7
:1040BC00050601D51E6802E04106FBD51E886F2F50
:1040CC000CBF08230A235148002184F8431065686B
:1040DC00002DA8BF2168A560A4BF21F004012160B8
:1040EC000EB9002D4BD01546B6FBF3F103FB11674F
:1040FC00C75D05F8017D3746BB420E46F4D9082B47
:10410C000BD12368DE0708D5236961689942DEBFAD
:10411C00302305F8013C05F1FF35521B22614B465B
:10412C0021464046CDF800A003AAFFF7DFFE013080
:10413C004AD14FF0FF3004B0BDE8F087236843F05C
:10414C00200323607827324884F845702368296857
:10415C001F0651F8046B02D45F0648BFB6B2DF07E6
:10416C0048BF43F02003296048BF23601EB9236871
:10417C0023F0200323601023A6E72448E4E7154628
:10418C00BDE72B682668181D6169286035061B6819
:10419C0001D5196002E07006FBD519800023154685
:1041AC002361BCE72B6800211A1D2A601D68626818
:1041BC00284600F059F808B1401B60606368236121
:1041CC00002384F84330AAE72A464946404623692F
:1041DC00D0470130ADD023689B0713D4E068039B14
:1041EC009842B8BF1846A6E70123324649464046D6
:1041FC00D04701309DD00135E36803995B1AAB427F
:10420C00F2DCEBE7002504F11906F5E72F44000872
:10421C0040440008884210B501EB020402D98442E4
:10422C00234607D8431EA14208D011F8012B03F8EE
:10423C00012FF8E7014602448A4200D110BD13F861
:10424C00014D02F8014DF7E738B50023054D044642
:10425C0008462B60FCF726FF431C02D12B6803B1E8
:10426C00236038BD20030020034610B5C9B20244B8
:10427C009342184601D1002003E0047801338C42AC
:10428C00F6D110BD0A44914200F1FF3300D17047C2
:10429C0010B511F8014B914203F8014FF9D110BD43
:1042AC002DE9F041804614460E4621B91146BDE871
:1042BC00F041FFF737BC2AB9FFF7CCFB254628465F
:1042CC00BDE8F08100F01BF88442074602D8B4EB3D
:1042DC00500F12D821464046FFF724FC0546002813
:1042EC00EDD0BC422246314628BF3A46FFF7CAFF02
:1042FC0031464046FFF7AEFBE1E73546DFE751F8C4
:10430C00043C181F002BBCBF0B58C0187047000092
:10431C00F8B500BFF8BC08BC9E467047F8B500BFA6
:08432C00F8BC08BC9E46704776
:104334005354415455533A205741524E494E470025
:104344005354415455533A204155544F00000000F2
:10435400456E7465722070617373776F72643A008E
:1043640054494D453A20253032643A253032643A76
:104374002530326400000000444154453A20253081
:1043840032642F253032642F25303464000000005D
:10439400C0F9A4B0999282F8809000000708090F30
:1043A4000405060E0102030D0A000B0C52652D656F
:1043B4006E7465722070770057656C636F6D65214C
:1043C400212121005354415455533A20434F4E5414
:1043D400524F4C00313233343500000000000000ED
:1043E40000000000010203040607080900000000A1
:1043F4000102030402030405060708090A0B0C0D55
:104404000E0F10100102000002030405060708093C
:104414000A0B0C0D0E0F10100102232D302B20005F
:10442400686C4C006566674546470030313233346A
:10443400353637383941424344454600303132330A
:1044440034353637383961626364656600000000CC
:04445400310100082A
:044458000D0100084A
:10445C000024F40010000000010000000000000027
:10446C00E801002050020020B802002000000000EB
:10447C000000000000000000000000000000000030
:10448C000000000000000000000000000000000020
:10449C000000000000000000000000000000000010
:0C44AC0000000000000000000C000020D8
:040000050800138557
:00000001FF
